:020000040800F2
:10000000C8E001205D020008D9090008D5090008F0
:10001000D70900086F050008D91900080000000082
:100020000000000000000000000000009D0100082A
:100030006D09000800000000F90100084D170008D4
:1000400077020008770200087702000877020008AC
:10005000770200087702000877020008770200089C
:10006000770200087702000877020008770200088C
:10007000770200087702000877020008770200087C
:10008000770200087702000877020008770200086C
:10009000770200087702000877020008770200085C
:1000A000770200087702000877020008770200084C
:1000B000770200087702000877020008770200083C
:1000C000770200087702000877020008770200082C
:1000D000770200087702000877020008770200081C
:1000E000770200087702000877020008770200080C
:1000F00077020008770200087702000877020008FC
:1001000077020008770200087702000877020008EB
:1001100077020008770200087702000877020008DB
:1001200077020008770200087702000877020008CB
:1001300077020008850900087702000877020008A6
:1001400077020008770200087702000877020008AB
:10015000770200087702000877020008770200089B
:10016000770200087702000877020008770200088B
:1001700077020008770200087702000800000000FC
:100180007702000877020008DFF80CD000F032F99F
:100190000048004701990008C8E001202C4B19686D
:1001A0000868B0E8F04F80F30988BFF36F8F4FF015
:1001B000000080F3118870470000000008480068C4
:1001C000006880F308884FF0000080F3148862B65E
:1001D00061B6BFF34F8FBFF36F8F00DF00BF00BF6B
:1001E00008ED00E0DFF80C00016841F470010160E7
:1001F000704700BF88ED00E0EFF30980BFF36F8F19
:10020000134B1A681EF0100F08BF20ED108A20E96A
:10021000F04F106009B44FF0500080F31188BFF325
:100220004F8FBFF36F8F16F021FB4FF0000080F36C
:10023000118809BC19680868B0E8F04F1EF0100F6B
:1002400008BFB0EC108A80F30988BFF36F8F704746
:100250004C000020EFF305807047000006488047FF
:1002600006480047FEE7FEE7FEE7FEE7FEE7FEE79B
:10027000FEE7FEE7FEE7FEE78517000889010008B4
:10028000004870472C7B010810B5431A934209D2ED
:100290008318881803E010F8011D03F8011D521E91
:1002A000F9D210BD40EA01039B0703D009E008C959
:1002B000121F08C0042AFAD203E011F8013B00F82B
:1002C000013B521EF9D210BDD2B201E000F8012B61
:1002D000491EFBD270470022F6E710B513460A46C6
:1002E00004461946FFF7F0FF204610BD30B504461E
:1002F0000020034600E05B1C934203D2E05CCD5C2F
:10030000401BF8D030BD70B5064601F03FFE0468D2
:1003100005460A220021304600F033F82C6070BDFB
:100320002DE9F05F0546002092469B46884606462A
:10033000814640241BE0284641464746224600F0BD
:100340007AF853465A46C01A914110D311461846BE
:10035000224600F061F82D1A67EB01084F4622464D
:100360000120002100F058F817EB00094E41201E33
:10037000A4F10104DFDC484631462A464346BDE885
:10038000F09F2DE9F04791460F468046044600262F
:1003900014F8015B2DB1FFF773FF0068405DC007E3
:1003A000F6D12B2D02D02D2D18D0641E4A46394689
:1003B000204600F050F827B13968A14201D1C7F8B2
:1003C000008071054FF002040BD54042002803DD88
:1003D00001F0DCFD0460A007BDE8F08746F480660C
:1003E000E4E70028F8DA01F0D1FD04606FF0004086
:1003F000F2E70000064C074D06E0E06840F001031C
:1004000094E8070098471034AC42F6D3FFF7C0FEDB
:10041000C4800108E4800108202A04DB203A00FAA5
:1004200002F1002070479140C2F1200320FA03F34B
:10043000194390407047202A04DB203A21FA02F049
:100440000021704721FA02F3D040C2F1200291400E
:100450000843194670472DE9F05F8246007800276F
:1004600015468B460AF10104B946302801D09DB1EA
:1004700013E014F8010B0127782803D0582801D085
:1004800045B10AE00DB1102D07D10027102514F851
:10049000010B02E0082500E00A250026B0460EE028
:1004A00005FB080005FB06F1012701EB10461FFACA
:1004B00080F8B6F5803F00D3B94614F8010B294601
:1004C00000F018F80028EBDABBF1000F05D00FB1EF
:1004D000641E00E05446CBF80040B9F1000F06D08E
:1004E00001F054FD02210160C81EBDE8F09F48EAFA
:1004F0000640FAE73A2800D2303820F02002412A9C
:1005000001D3A2F13700884201D34FF0FF3070478A
:1005100070B58C1810F8015B15F0070301D110F8C5
:10052000013B2A1106D110F8012B03E010F8016BF2
:1005300001F8016B5B1EF9D12B0705D40023521E75
:100540000DD401F8013BFAE710F8013BCB1A921CDD
:1005500003E013F8015B01F8015B521EF9D5A142DB
:10056000D8D3002070BD0A2016F038F8FBE7FEE76C
:1005700000B597B000F02AF84FF460600CF052FF1D
:100580000020019002900390049005210591032220
:100590000692079102210891099001210A910B907E
:1005A0000C900D91C9020E910F9010901190129025
:1005B0001390149001A81590169008A803F080FDE0
:1005C000022003F075FD17B000BD00002DE9F047D3
:1005D0004FF440600CF026FF40F601400CF022FF83
:1005E00040F602400CF01EFF40F603400CF01AFFEC
:1005F00040F604400CF016FF40F605400CF012FFE8
:1006000040F606400CF00EFFDFF8509301220C215B
:10061000484603F00BFE012300220221484603F066
:1006200037FE012303220021484603F055FE022233
:100630000C21484603F0FAFD0223002219464846E1
:1006400003F026FE022303220021484603F044FE65
:100650004FF4807422460C21484603F0E7FD234600
:1006600000220221484603F013FE23460322002104
:10067000484603F031FE4FF4007842460C214846CC
:1006800003F0D4FD434600220221484603F000FE59
:10069000434603220021484603F01EFEA5002A46D9
:1006A0000C21484603F0C2FD2B4600220221484699
:1006B00003F0EEFD2B4603220021484603F00CFE1A
:1006C000A60132460C21484603F0B0FD3346002215
:1006D0000221484603F0DCFD334603220021484650
:1006E00003F0FAFDE7013A460C21484603F09EFD6F
:1006F0003B4600220221484603F0CAFD3B46032246
:100700000021484603F0E8FDDFF854A280220C21C6
:10071000504603F08BFD802300220221504603F057
:10072000B7FD802303220021504603F0D5FD224669
:100730000C21504603F07AFD234600220221504648
:1007400003F0A6FD234603220021504603F0C4FD1A
:1007500042460C21504603F069FD43460022022127
:10076000504603F095FD434603220021504603F016
:10077000B3FD2A460C21504603F058FD2B460022BB
:100780000221504603F084FD2B46032200215046EF
:1007900003F0A2FDE40022460C21504603F046FD82
:1007A000234600220221504603F072FD2346032215
:1007B0000021504603F090FD640022460C21504673
:1007C00003F034FD234600220221504603F060FD71
:1007D000234603220021504603F07EFD640022469A
:1007E0000C21504603F022FD2346002202215046F0
:1007F00003F04EFD234603220021504603F06CFD1A
:1008000032460C21504603F011FD334600220221EE
:10081000504603F03DFD334603220021504603F0CD
:100820005BFD3A460C21504603F000FD3B4600229A
:100830000221504603F02CFD3B4603220021504686
:1008400003F04AFD474C01220C21204603F0EEFC48
:10085000012300220221204603F01AFD0123032276
:100860000021204603F038FD02220C21204603F02F
:10087000DDFC022300221946204603F009FD022375
:1008800003220021204603F027FD04220C212046EC
:1008900003F0CCFC042300220221204603F0F8FCE4
:1008A000042303220021204603F016FD08220C2118
:1008B000204603F0BBFC082300220221204603F05F
:1008C000E7FC082303220021204603F005FD102247
:1008D0000C21204603F0AAFC10230022022120460E
:1008E00003F0D6FC102303220021204603F0F4FC81
:1008F000102300220221484603F0CAFC10230322E1
:100900000021484603F0E8FC10220C21484603F081
:100910008DFC202300220221484603F0B9FC20234D
:1009200003220021484603F0D7FC20220C21484630
:1009300003F07CFC0C4C2B4600220221204603F0E5
:10094000A7FC2B4603220021204603F0C5FC2A46C3
:100950002046BDE8F0470C2103F068BC000C0240C3
:10096000001002400014024000180240704740F698
:10097000B8331946491E4A1CFCD1401E411CF8D10F
:100980007047000038B5002000900D4C204602F062
:10099000ADF9012804D10B486946006816F0B8F992
:1009A000204602F097F906480A3002F093F90098C1
:1009B000002803D004494FF08050086038BD000083
:1009C000060504003000002004ED00E000F1D040F6
:1009D00001707047FEE7FEE7704700002DE9F04127
:1009E00080460D4616461F4616480078002801D15D
:1009F00000F0F4FFEFF31181202080F31188114CF7
:100A0000002000EB400204EBC202D2691AB1401C84
:100A100022698242F5DC226982420CDD00EB400251
:100A200004EBC204C4F81880E56126620022A262C9
:100A30006262E76201E04FF0FF30C9B281F31188D2
:100A4000BDE8F08104CF01202DE9F0470546DDF82F
:100A500020900E461746984612480078002801D18B
:100A600000F0BCFF0F49032D19D2EFF311802022B3
:100A700082F3118805EB450201EBC204603435B105
:100A800026606760C4F8088000212161E160C4F835
:100A90001490C0B280F311880020BDE8F0874FF0B9
:100AA000FF30FAE704CF012000F098BF2DE9F047AE
:100AB0000446884616461B4A1178002901D100F0E9
:100AC0008DFF184904EB440001EBC00560352C692B
:100AD000D5F80C9000274C4511D9A868071BB742E0
:100AE00000D33746686801193A464046FFF7CCFB09
:100AF000B844F61B3C44A868A04200D10024A9EBEE
:100B00000400B04200D206463EB168680119324680
:100B10004046FFF7B9FB3744344407B12C613846EF
:100B2000BDE8F08704CF01202DE9F04105460E46CF
:100B300017460A4B1878002801D100F04FFFEFF359
:100B40001184202080F311883A463146284600F06F
:100B500007F8E1B281F31188BDE8F08104CF0120EC
:100B600070B50E461446184900EB400001EBC00575
:100B700018356869002806D0012811D002281BD03A
:100B80000024204670BD284600F07BFFA04201D221
:100B90000024F6E722463146284601F0C5F9F0E781
:100BA000284600F06EFFA04200D20446224631469D
:100BB000284601F0B9F9E4E722463146284601F01B
:100BC00085F90446DDE7000004CF01202DE9F0415E
:100BD000884616461A4900EB400001EBC004183461
:100BE0002069E568A84224D8A168491B0F46491E20
:100BF000B1420AD36068284432464146FFF744FBBD
:100C0000A819E0600120BDE8F0810844B04214D387
:100C1000606828443A464146FFF736FBF51B2DB184
:100C2000606808EB07012A46FFF72EFBE56001200C
:100C3000E9E7401B401EB042DCD20020E3E70000A1
:100C400004CF01200FB408B504A900916A460399A6
:100C500000F003F801B05DF814FB2DE9F04198B005
:100C600080460C46164603A8139040201490002797
:100C70001597CDF85C80169714F8011B39B125291A
:100C800017D013A801F0CEF816980028F4DA1698B9
:100C900000280ADD159820B103A94046159AFFF7F0
:100CA00043FFDDE9151008441690169818B0BDE80A
:100CB000F081002101202278232A1ED02B2A18D06F
:100CC0002D2A0ED0302A10D000200028F3D125780C
:100CD000A5F130020A2A14D3002322782E2A17D035
:100CE00023E041F00101641CEFE741F00201641CC4
:100CF000EBE741F00401641CE7E741F00801641CE4
:100D0000E3E7641C00EB800005EB40003038DEE7D1
:100D1000641C2578A5F130020A2A06D2641C03EB74
:100D2000830205EB4203303BF3E76C2D0DD0682DB9
:100D30000BD0702D4ED00BDC252D58D0582D2FD038
:100D4000632D0CD0642D56D112E0641C2578ECE79D
:100D5000732D31D0752D17D0782D4CD120E030680F
:100D6000011D31600078C1B213A801F05BF842E0C8
:100D70003268151D35601568CDE900010A22294643
:100D800013A800F0D7FE36E03268151D35601568EF
:100D9000CDE900010A22294613A800F037FF2AE016
:100DA0003268151D35601568CDE90001102229460D
:100DB00013A800F02BFF1EE03068011D31600568AC
:100DC00015F8011BB9B113A801F02CF816980028EA
:100DD000F6DA10E03068011D316001680820CDE9C5
:100DE00000070346102213A800F010FF03E025219E
:100DF00013A801F017F8641C46E7000010B5084876
:100E0000054B064A0168084600F056F8BDE8104058
:100E10004FF0805000F08EBBD11F0008687A0108A7
:100E20000000002070B5EFF31184202080F31188BA
:100E3000204800F07DFE034618461E4D283D6A6896
:100E400004E042F0800100F8011BD2097F2AF8D8A3
:100E500000F8012BAA6804E042F0800100F8011BB1
:100E6000D2097F2AF8D800F8012B2A6904E042F061
:100E7000800100F8011BD2097F2AF8D800F8012B65
:100E8000002204E042F0800100F8011BD2097F2A11
:100E9000F8D800F8012B01461822184600F022FF6E
:100EA000E0B280F31188686A002802D0BDE8704083
:100EB000004770BDE4D701202DE9F84306460F46F0
:100EC0009046994600234FF480620E490EA0FFF72A
:100ED00085FD0F4CC0B260702076002508230D4AB6
:100EE00009A10095FFF7B0FD25610B484068E0605F
:100EF000C4F820806660A760C4F824902570BDE81F
:100F0000F8830000BCD301205379735669657700DC
:100F1000BCD7012004020020001000E010B5EFF360
:100F20001184202080F31188054800F001FE112271
:100F3000014600F0D7FEE0B280F3118810BD00003A
:100F4000E4D7012070B50546EFF31184202080F32B
:100F500011880E4800F0ECFD034618460B4928396D
:100F600009696A1A04E042F0800100F8011BD20905
:100F70007F2AF8D800F8012B01460822184600F015
:100F8000B1FEE0B280F3118870BD0000E4D701200B
:100F900070B50546EFF31184202080F311880E48C8
:100FA00000F0C6FD034618460B49283909696A1A3C
:100FB00004E042F0800100F8011BD2097F2AF8D832
:100FC00000F8012B01460422184600F08BFEE0B227
:100FD00080F3118870BD0000E4D7012070B505468C
:100FE000EFF31184202080F311880E4800F0A0FD5B
:100FF000034618460B49283909696A1A04E042F089
:10100000800100F8011BD2097F2AF8D800F8012BD3
:1010100001460622184600F065FEE0B280F3118812
:1010200070BD0000E4D7012070B506460C46EFF312
:101030001185202080F31188124800F079FD0346C5
:101040001846104928390969711A04E041F08002F4
:1010500000F8012BC9097F29F8D800F8011B04E02A
:1010600044F0800100F8011BE4097F2CF8D800F857
:10107000014B01460722184600F034FEE8B280F327
:10108000118870BDE4D7012010B5EFF31184202042
:1010900080F311880D4800F04BFD034618460C49BB
:1010A0000988C1F3080204E042F0800100F8011B46
:1010B000D2097F2AF8D800F8012B014602221846EF
:1010C00000F010FEE0B280F3118810BDE4D70120DB
:1010D00004ED00E010B5EFF31184202080F31188B7
:1010E000054800F025FD0322014600F0FBFDE0B2BB
:1010F00080F3118810BD0000E4D7012010B5EFF394
:101100001184202080F31188054800F011FD12227F
:10111000014600F0E7FDE0B280F3118810BD000049
:10112000E4D7012010B50A48006A002809D00068F9
:1011300038B180470A460146BDE810400D2000F056
:101140002DB804484168BDE810400C2000F004B8F8
:10115000BCD70120001000E070B506460C46EFF346
:101160001185202080F311880B4800F0E1FC034634
:10117000184604E044F0800100F8011BE4097F2CCC
:10118000F8D800F8014B01463246184600F0AAFD97
:10119000E8B280F3118870BDE4D701202DE9F04159
:1011A00007460C461546EFF31186202080F3118880
:1011B000114800F0BDFC0346184604E044F08001ED
:1011C00000F8011BE4097F2CF8D800F8014B04E07B
:1011D00045F0800100F8011BED097F2DF8D800F8DB
:1011E000015B01463A46184600F07CFDF0B280F300
:1011F0001188BDE8F0810000E4D701202DE9F0411D
:1012000080460E4614461D46EFF31187202080F3DA
:101210001188164800F08CFC0346184604E046F09E
:10122000800100F8011BF6097F2EF8D800F8016B49
:1012300004E044F0800100F8011BE4097F2CF8D899
:1012400000F8014B04E045F0800100F8011BED09B6
:101250007F2DF8D800F8015B01464246184600F0A1
:1012600041FDF8B280F31188BDE8F081E4D7012098
:101270002DE9F0478146089F0C4615461E46EFF3C0
:101280001188202080F311881B4800F051FC034690
:10129000184604E044F0800100F8011BE4097F2CAB
:1012A000F8D800F8014B04E045F0800100F8011B7C
:1012B000ED097F2DF8D800F8015B04E046F08001CD
:1012C00000F8011BF6097F2EF8D800F8016B04E046
:1012D00047F0800100F8011BFF097F2FF8D800F8C4
:1012E000017B01464A46184600F0FCFC08F0FF006E
:1012F00080F31188BDE8F087E4D7012070B505467A
:10130000EFF31184202080F31188054800F010FCD1
:101310002A46014600F0E6FCE0B280F3118870BD79
:10132000E4D701202DE9F04104461D484568002D11
:1013300034D0002002E02D6915B1401CA042FAD340
:10134000002D2BD0EFF31187202080F31188154852
:1013500000F0EEFB0646304604E044F0800100F861
:10136000011BE4097F2CF8D800F8014B0346A8685C
:1013700004E040F0800103F8011BC0097F28F8D881
:101380001870581C8022296800F05AFB014616226A
:10139000304600F0A7FCF8B280F31188BDE8F08178
:1013A000FC010020E4D7012010B505484468002C5A
:1013B00005D0E06800B180472469002CF9D110BD48
:1013C000FC01002010B5EFF31184202080F3118878
:1013D0000C4800F0ADFB034618460B490A7804E0C0
:1013E00042F0800100F8011BD2097F2AF8D800F8EA
:1013F000012B01461B22184600F074FCE0B280F37A
:10140000118810BDE4D70120FC01002070B505460D
:10141000EFF31184202080F31188094800F088FB45
:10142000064680222946304600F00AFB01460E227D
:10143000304600F057FCE0B280F3118870BD000028
:10144000E4D701202DE9F0410646EFF31185202075
:1014500080F31188304800F06BFB044620460346B9
:101460002D4F3068283F3969401A04E040F0800170
:1014700003F8011BC0097F28F8D803F8010BB068F6
:1014800004E040F0800103F8011BC0097F28F8D870
:101490001870581C2022716800F0D2FA0146092207
:1014A000204600F01FFC214630683A69801A04E0AB
:1014B00040F0800201F8012BC0097F28F8D801F81C
:1014C000010BF06804E040F0800201F8012BC00934
:1014D0007F28F8D801F8010B306904E040F0800261
:1014E00001F8012BC0097F28F8D801F8010B002072
:1014F00004E040F0800201F8012BC0097F28F8D8F1
:1015000001F8010B1522204600F0ECFBE8B280F355
:101510001188BDE8F0810000E4D701200448006A8A
:10152000002803D04068002800D000477047000022
:10153000BCD701200149086170470000BCD70120D9
:1015400001490969401A7047BCD7012070B52E4D7A
:1015500001202870EFF31184202686F31188687823
:101560000A222A49FFF732FBE0B280F311880A20F1
:10157000FFF7C4FEEFF3118486F3118805F128000C
:1015800000F0D6FA034618466A6804E042F080018B
:1015900000F8011BD2097F2AF8D800F8012BAA68AD
:1015A00004E042F0800100F8011BD2097F2AF8D83C
:1015B00000F8012B2A6904E042F0800100F8011BC9
:1015C000D2097F2AF8D800F8012B002204E042F06B
:1015D000800100F8011BD2097F2AF8D800F8012BFE
:1015E00001461822184600F07DFBE0B280F3118816
:1015F000686A00B18047FFF795FDFFF78FFFBDE8F0
:101600007040FFF7DFBE0000BCD70120917A0108CF
:1016100070B5EFF31184202080F31188084800F0A2
:1016200087FA074D283D297829B10B22014600F0A1
:1016300059FB00202870E0B280F3118870BD0000D3
:10164000E4D7012070B50646EFF31184202080F323
:101650001188144800F06CFA05468022314628466D
:1016600000F0EEF9012204E042F0800100F8011BD5
:10167000D2097F2AF8D800F8012B002204E042F0BA
:10168000800100F8011BD2097F2AF8D800F8012B4D
:1016900001461A22284600F025FBE0B280F31188AB
:1016A00070BD0000E4D701202DE9F84F80460A9E66
:1016B0000F4691469A46052213A13846FEF716FEBC
:1016C00000281ED0124A1568082D04D3BDE8F84F33
:1016D0001048FFF7B7BF104905EB850041F820809F
:1016E00001EB80046760C4F80890C4F80CA0266180
:1016F0006D1C156053464A4639464046009600F038
:101700000DF8BDE8F88F000049444C45000000008A
:10171000F80100207480010864CE01202DE9F04119
:1017200086B004460C9E0D4617469846142101A823
:10173000FEF7D1FD019402950397CDF81080059630
:1017400001A8FFF77FFE06B0BDE8F08110B550207C
:1017500080F31188BFF34F8FBFF36F8FFFF794FCB7
:1017600015F0BCFD30B1FFF7C9FC05494FF08050C2
:10177000086001E0FFF7AEFC002080F3118810BD87
:1017800004ED00E018B41F48016841F470010160E5
:101790001D4B186840F0010018601B4A08321068A1
:1017A00040F080001060002400944CF2503002E0C1
:1017B0000099491C009100998142F9D3116841F0C8
:1017C00090011160009402E00099491C0091009979
:1017D0008142F9D3106820F00300106018680B49AB
:1017E00008401860186820F48020186014601068A1
:1017F00005490748091D086003480C30046018BCFF
:101800000CF0AEBB88ED00E000380240FFFFF6FEB2
:10181000103000248CB0642002904FF0000A4FF486
:10182000966840460BF0EEFC06463000F9D04FF0CB
:101830000109042500220121022007F051FE04467F
:10184000200004D54CA10020FFF7FCF961E040F630
:10185000FF7709E0012014F0C1FE0AF1010A1FFA26
:101860008AFABAF1C80F08D202AB042239462046E0
:10187000009507F097F90028ECD102208DF821009F
:101880004148099041F2883005F0F8FDADF822009A
:1018900000200A900B90102208A9204605F09EFC1B
:1018A00000B218B1642014F099FEF4E70521204637
:1018B00005F0FEFD401C28D04FF0100BCDF80CB009
:1018C00003AA04A9204605F005FB8246BDF81200D4
:1018D00005F0D4FD002834D0BDF8120005F0CEFD8F
:1018E000074605A804F066FE02463B4627A10020F5
:1018F000FFF7A8F9CDF8049001AB0122062150466C
:10190000009507F04FF92A4F12E02AA10020FFF7B7
:1019100099F9002C8EDB0027204605F011FD00B25E
:1019200025E038681044386026A10020FFF78AF9C6
:10193000002342463146504606F00BFD0246002A7F
:10194000EFDCBAF1000F02DB504605F0F9FC0A208B
:1019500014F044FEB2E7012014F040FE204605F0EA
:10196000EFFC00B27F1CFFB2142FBFF463AF00285E
:101970003FF460AFEFE70000536F636B6574206561
:1019800072726F720A000000C0A87B016E6577203A
:10199000636C69656E7420636F6E6E6563746564F5
:1019A0002066726F6D202825732C202564290A007B
:1019B000480000204C697374656E206572726F7206
:1019C0000A00000072656376202564206C656E2035
:1019D000646174610A000000FEE7000010B5134C5A
:1019E000A8212046FEF777FC03202061606110A04B
:1019F000A06104F1A800E0614FF480602062002043
:101A0000A0626062E0620AA1216604F595616166E8
:101A10001021A1662067E06660670849C0F10F02E7
:101A20008A5C2254401C1028F8D310BD04CF01203A
:101A30005465726D696E616C00000000707A010877
:101A400010B50023002901D106E05B1CCC5C002C02
:101A5000FBD1934200D91346FF2B02D200F8013B81
:101A600005E0FF22027043701A0A8270C01C002237
:101A700004E011F8014B00F8014B521C9A42F8D3D4
:101A800010BD0169C268914204D88068801A084478
:101A9000401E7047881A401E7047000038B5234C1E
:101AA00001226946207EFFF701F800281CD09DF82E
:101AB0000000052825D008DC012816D0022817D000
:101AC000032818D0042808D118E006281CD00728BD
:101AD0001DD07F2808D080281CD0802804D3207EE9
:101AE00001226946FEF7E2FF38BDFFF72FFD38BD42
:101AF000FFF78EFD38BDFFF715FB38BDFFF70EFD74
:101B000038BDFFF78FF938BDFFF75CFC38BDFFF734
:101B10004BFC38BD207E01226946FEF7C7FF002836
:101B2000F7D09DF80000FFF7FDFB38BDBCD70120C2
:101B3000C01D70472DE9FC5F0646DDE90C480F46E5
:101B400092469946C7F1000B002F01DA584600E093
:101B50003846012502E090FBFAF06D1C5045FADA98
:101B6000A94500D94D462CB1002F02DB5FEA487031
:101B700000D5641E5FEA887002D5B9F1000F0FD05E
:101B80005FEAC8700CD144B90AE0641E20213046D7
:101B900000F048F9F068002802DB0CB1A542F4D34C
:101BA000F068002830DB002F05DA5F462D21304633
:101BB00000F038F906E05FEA487003D52B21304683
:101BC00000F030F9F06800281EDB08F0030002285E
:101BD0000FD1B9F1000F0CD144B90AE0641E3021D5
:101BE000304600F01FF9F068002802DB0CB1A54276
:101BF000F4D3F068002807DBCDE900484B46524695
:101C00003946304600F002F8BDE8FC9F2DE9F84F58
:101C10008246DDE90A4B884617469946404601252B
:101C2000012602E0B0FBF7F0761CB842FAD2B145CB
:101C300000D94E465FEACB7018D1BCB15FEA8B7019
:101C400002D5B9F1000F02D0202000900BE0302027
:101C5000009008E0641E5046009900F0E3F8DAF8BE
:101C60000C00002802DB0CB1A642F3D3DAF80C001A
:101C700000280CDABDE8F88FA9F1010906E0B8FBED
:101C8000F5F0B84202D2DFF8589004E07D43B9F194
:101C9000010FF4D9F0E7B8FBF5F000FB158819F84F
:101CA0000010504600F0BEF8DAF80C00002803DB04
:101CB000B5FBF7F5002DEED15FEACB70DAD04CB969
:101CC000D8E7641E2021504600F0ACF8DAF80C008A
:101CD0000028CFDB002CCDD0A642F2D3CAE700000B
:101CE000817A01082DE9F04706460D4614464A4F11
:101CF0004FF001083878012808D0002876D0022853
:101D000004D100F0AFF8387801286FD1202C04D22C
:101D1000F86908FA04F1084268D1E0B2182C02D23E
:101D2000731E187049E0A91B7F2907D9CA0906F854
:101D3000012CB61E41F08001317001E006F8011D52
:101D40007F2C02D2731E187037E0E0B240F08000A2
:101D5000B4F5804F05D2E10906F8011CB31E1870D6
:101D60002BE04FF0800C4CEAD411C9B2B4F5001F3F
:101D700008D2A20B334606F8012C03F8021CDB1E26
:101D800018701AE0802242EA9432D2B2B4F1805F35
:101D900007D2640DF31E9C705A7003F80119187075
:101DA0000BE04FEA1479331F06F8019C4CEA5454B7
:101DB0009C705A7003F80119187018484468F86844
:101DC000211A04E041F0800005F8010BC9097F29C0
:101DD000F8D805F8011BEA1A78781946FEF7F6FEDE
:101DE00008B1FC6002E03878401C3870387E00EBA7
:101DF00040010B4800EBC100C16E006F814208D06A
:101E0000B878002805D187F80280FFF747FE002048
:101E1000B870BDE8F0870000BCD70120001000E0DA
:101E200004CF012010B50446A0686368421C9342A9
:101E300005D323681954A260E068401CE060D4E92F
:101E40000102824209D121682069FEF76DFEA16876
:101E5000884203D04FF0FF30E06010BD0020A0604A
:101E600010BD00003EB501208DF800006B46591CE6
:101E7000144C606904E040F0800201F8012BC009B5
:101E80007F28F8D801F8010B0F484568E068281A48
:101E900004E040F0800201F8012BC0097F28F8D847
:101EA00001F8010BCA1A60786946FEF78FFE20B16F
:101EB000E5602178491E21703EBD6169491C616160
:101EC0003EBD0000BCD70120001000E02DE9F04726
:101ED0000546894617464FF00008EC682869A0427D
:101EE00002D9061B761E03E0A968201A0E1A761E78
:101EF000A868001BB04200D80646BE4200D33E464A
:101F00006868204432464946FEF7BEF9B044B14401
:101F1000BF1B3444A868A04200D10024EC60002F0D
:101F2000DCD14046BDE8F0872DE9F0410446884603
:101F30001646E768A068C51BE1686068B5420844BA
:101F400007D932464146FEF79FF9B819E060BDE86F
:101F5000F0812A464146FEF797F9761B606808EB48
:101F600005013246FEF790F9E660F0E70FB4054B45
:101F700010B503A9044A029800F070F810BC5DF88F
:101F800014FB00007D4100080C020020004870474F
:101F90001002002002E008C8121F08C1002AFAD16E
:101FA00070477047002001E001C1121F002AFBD1D9
:101FB000704770B515F08AF900214FF47A72A0FBD2
:101FC000023501FB0251002400FB0411184670BDCC
:101FD00010B504A0FFF71AFABDE810400EA0FFF7F5
:101FE00015BA00004E3D4672656552544F53204469
:101FF000656D6F204170706C69636174696F6E2CE0
:10200000443D436F727465782D4D342C4F3D4672BC
:10201000656552544F530000492331353D53797360
:102020005469636B00000000F8B50024094E0DE010
:10203000094F04EB840507EB85000169001D009141
:102040000EC857F82500FFF769FB641C306884420E
:10205000EED3F8BDF801002064CE01202DE9FF4F3A
:102060008DB09B460F460446002606E025280BD07F
:102070005A460F999047641C761C20780028F5D1A9
:1020800011B03046BDE8F08F0025A84601229849DE
:1020900000E0054314F8013F203B02FA03F0084238
:1020A000F7D120782E2817D114F8010F45F0040538
:1020B0002A280ED06FF02F022078A0F130010929D4
:1020C0000AD808EB880102EB410100EB0108641C0F
:1020D000F2E757F8048B641C20786C280DD004DCE0
:1020E0004C2812D06A2811D104E074280DD07A2827
:1020F0000CD10AE045F4001507E0617845F480153D
:10210000814202D1641C05F58015641C2278692A7D
:1021100045D008DC002AB3D0582A69D0632A10D0F1
:10212000642A08D13BE0702A67D0732A13D0752A3D
:102130005CD0782A5CD010465A460F999047761C9E
:10214000D3E017F8040B8DF8000000208DF8010093
:10215000E946012003E057F8049B4FF0FF30690780
:102160004FF0000501D40AE06D1C45450DDA8542AB
:10217000FADB19F805100029F6D106E06D1C85423E
:10218000FCDB19F805100029F8D12E4404E019F8F9
:10219000010B5A460F9990476D1EF8D2A5E00A2010
:1021A0000021CDE90801C5F3025002280DD001CF6E
:1021B000C117031E71F100030DDA4FF0000CD0EBD4
:1021C0000C006CEB01012D2308E0FF1D27F0070731
:1021D000F7E80201EDE72B0504D52B238DF8283015
:1021E00001233BE0EB0739D02023F7E70A2000E08A
:1021F00010200021CDE9080107E01020002145F062
:102200000405CDE908014FF00808C5F30250022883
:102210000FD001CF00214FF0000A2B071FD5702AE5
:102220000DD0DDE908C38CF0100C5CEA030C0CD077
:1022300015E0FF1D27F00707F7E80201EBE7402252
:102240008DF828204FF0010A0BE050EA010306D078
:1022500030238DF828308DF8292002239A46582AF9
:1022600004D024A20DF120090B9209E026A2F9E77F
:10227000DDE90823FEF754F80B9B9B5C09F8013D50
:1022800050EA0102F4D1ADEB090020300890680754
:1022900001D44FF001080899884502DDA8EB010040
:1022A00000E000208046002506E00AA85A46405D6E
:1022B0000F9990476D1C761C5545F6DB04E03020E5
:1022C0005A460F999047761CB8F10001A8F1010811
:1022D000F5DC05E019F8010B5A460F999047761C7A
:1022E0000899481E08900029F4DC641CC5E600002B
:1022F00009280100303132333435363738396162DC
:10230000636465660000000030313233343536379F
:102310003839414243444546000000002DE9F84366
:1023200004460E4617466FF00505002C4CD004F10C
:10233000140080460BF0D7FB002847D06FF00C0943
:10234000002E45D047B137A0009040F22A233CA28E
:1023500045A10020FEF776FC2078E16A07F020FF17
:1023600005464FF0FF3775B36E6028460BF0C6FA8E
:10237000294640460BF0A9FBD0B36C6800212046EB
:102380000CF016F80021204610F02EFD002120460A
:1023900011F0C4FA0022114620460FF0F7FB00218D
:1023A00020460CF0E1FE0020686005F110000446B4
:1023B0000BF052FB20460BF085FB284608F03AF85C
:1023C0003846BDE8F88314E02846FAE72846F8E7DF
:1023D000484605F001FF014640460BF076FB28B960
:1023E000E36A1BB100221146204698472846E8E7D9
:1023F0000FE0484605F0F0FE014640460BF065FB55
:1024000028B9E36A1BB10022114620469847384696
:10241000D7E7E36A1BB10022114620469847002007
:10242000CFE700004C69625C4C5749505C737263A3
:102430005C6170695C6170695F6D73672E63000039
:10244000657870656374206E6577706362203D3DCA
:10245000204E554C4C206F7220657272203D3D20FD
:102460004552525F4F4B0000417373657274696F40
:102470006E2022257322206661696C656420617478
:10248000206C696E6520256420696E2025730A0022
:102490002DE9F84306460F460024184800EB0411C6
:1024A000096831B1641C042CF8DB4FF0FF30BDE843
:1024B000F88300EB04152E604FF00008C5F8048087
:1024C000A87B40B10EA0009040F20E2313A21BA1E6
:1024D0000020FEF7B7FBA5F8088030780121B1EBAA
:1024E000101F04D10FB1012002E0002000E0012004
:1024F0006881A5F80C802046D9E7000024CE012091
:102500004C69625C4C5749505C7372635C617069E2
:102510005C736F636B6574732E630000736F636B22
:102520006574735B695D2E73656C6563745F776159
:102530006974696E67203D3D20300000417373650A
:102540007274696F6E2022257322206661696C6542
:1025500064206174206C696E6520256420696E209A
:1025600025730A00426813895B1E13810269126891
:102570000A600069016070470269116800290DD086
:102580000B68136043681A89521C92B21A81406822
:1025900043899A4200D94281084670474068818841
:1025A000491C8180002070470D4801680D4A114088
:1025B0000160002141608160C16082694FF6417312
:1025C0001A4042F080028261C16107488169074A6E
:1025D000114041F00871816101680549016070474F
:1025E000008002400F8130FD00900240233FDEF862
:1025F0000060C10210B540F2194420460AF032FFD3
:1026000020460AF01FFFBDE8104000F037BB08B5B8
:10261000009002E00098401E009000980028F9D138
:1026200008BD000002464FF0FF30062907D2DFE860
:1026300001F01F1D0B03071B9088C0F30C007047AF
:102640005068C0F30C4070471168C1F30D40042876
:1026500008D9001F084A12689201F4D58906F2D5FC
:10266000001D704700207047906870479068704761
:102670001078C0F3C3007047008002402DE9F0419C
:1026800000210025DFF87480DFF874C040F2F454B4
:10269000B0F5E00F12D01B4A02F1A0070523DE07B8
:1026A00044F2F455C8F80C20CCF810200020CCF8E7
:1026B0000400CCF80000A3F1010C1BE0114A5032D9
:1026C000114F05234FF48016C8F81020CCF80C20C9
:1026D000ECE702EB01100660456001FB0478C0F8EE
:1026E0000880614504D200F11008C0F80C8000E0B9
:1026F000C260491C9942ECD3BDE8F08100900240D1
:102700000400002050020020B420002000B500F09A
:1027100015FC5DF804EB00F0CFBB000070B50022A3
:10272000214D2B691C68002C01DA002070BDD0B14E
:1027300023042AD4E30528D5A30526D5C4F30D43E5
:102740001B1F1A4E3668B60102D5A40600D51B1D04
:102750008B4206D9002070BD29698968895C815443
:10276000521C9A42F8D328694FF000410160104A88
:102770005169090603D580215161002191604168AA
:102780004B0404D5C06828610CE0002070BD09042A
:1027900002D5D068286105E01168C1F384010844BE
:1027A00010302861012070BD04000020008002402C
:1027B0000090024030B500221E4BDC682468002CDB
:1027C00001DA002030BD40F2F454A14201D90020CA
:1027D00030BD28B906E0DD68845CAD68AC54521C9D
:1027E0008A42F8D3D8684160016841F0405141F015
:1027F00000410160104A516901F00401546904F07C
:102800002004214302D05161002151600168CC02B3
:1028100002D5C068D8600AE0890202D51069D86084
:1028200005E01168C1F3840108441030D86001202C
:1028300030BD000004000020009002402DE9F0416E
:102840004FF440600AF0EEFD40F601400AF0EAFD68
:1028500040F602400AF0E6FD40F603400AF0E2FDD1
:1028600040F606400AF0DEFD40F607400AF0DAFDC9
:1028700040F608400AF0D6FD604D4FF480742246C1
:102880000021284601F0D2FC2346002202212846DE
:1028900001F0FEFC234603220021284601F01CFD26
:1028A00041F20E100AF0BEFD4FF0C06108110AF0AF
:1028B0003DFDE0030BF0F4FA0223002219462846FE
:1028C00001F0E6FC022303220021284601F004FD6A
:1028D000042300220221284601F0DAFC042303220B
:1028E0000021284601F0F8FC80230022022128461E
:1028F00001F0CEFC802303220021284601F0ECFCED
:1029000002220B21284601F091FC04220B212846CB
:1029100001F08CFC80220B21284601F087FC384F07
:10292000E400234600220221384601F0B1FCDFF822
:10293000D480234603220021404601F0CDFC6500EF
:102940002B4600220221384601F0A2FC2B4603222E
:102950000021404601F0C0FCA600334600220221BF
:10296000384601F095FC334603220021404601F031
:10297000B3FC22460B21384601F058FC2A460B21B5
:10298000384601F053FC32460B21384601F04EFC2C
:102990001D4C022300221946204601F079FC022337
:1029A00003220021204601F097FC1023002202217F
:1029B000204601F06DFC102303220021204601F087
:1029C0008BFC202300220221204601F061FC202301
:1029D00003220021204601F07FFC02220B21204629
:1029E00001F024FC10220B21204601F01FFC2046A0
:1029F000BDE8F04120220B2101F018BC000002408C
:102A00000004024000180240000802402DE9F8438B
:102A100004460E461746002500200090804600F030
:102A2000A9F930B98A48FFF7F2FD00F0A3F90028B0
:102A30007ED0FFF7B9FD012C7BD004F40060C00804
:102A400004F4804140EA5100009000226B46114698
:102A5000022000F0FBF900286CD06FF07F40FFF7F8
:102A6000D6FD7C4B186820F4B040204318607A49AA
:102A700070050AD5186840F480601860886920F0F5
:102A8000806206F08060104388615868384358605F
:102A9000724C2068C2070FD0A2881D68704E354066
:102AA00002F0800635431D608D6925F0C00502F4F3
:102AB000407245EA92028A61820705D5A5680A68D4
:102AC000684E32402A430A60420705D5E5680A6825
:102AD000654E32402A430A60020706D525690A6816
:102AE0004CF20206B2432A430A60C20605D5656964
:102AF0008A695E4E32402A438A6182060ED5A269F7
:102B00008E695B4D2E40ED4315402E438E610E685D
:102B100026F0800602F0800216430E60420605D5BC
:102B2000E569DA696FF310022A43DA61020602E00E
:102B300040E041E089E011D5226A9E694FF6417577
:102B40002E4022EA05052E439E6151F8806F26F043
:102B5000770602F4EE4246EA12220A60C10501D568
:102B6000616A9960810501D5A16AD960410506D5E0
:102B7000E26A596840F2DE75A943114359600105C4
:102B800005D5226B19683B4D294011431960C104DA
:102B900005D5616B1A6822F440020A431A6080046A
:102BA00005D5A16B186820F4602008431860012047
:102BB000BDE8F8834046FBE7DFF8BC9000216B4698
:102BC0000122084600F042F9BDF8000000F00400C0
:102BD00000906D1C08B94D45F0D34D4501D14046DC
:102BE000E6E700244FF48050009000226B46114627
:102BF000022000F02BF908B94046D9E700216B46C6
:102C00000122084600F022F9BDF8000000F0200083
:102C10000090641C08B94C45F0D34C4501D14046A6
:102C2000C6E700216B461F22084600F00FF9BDF8E9
:102C30000000C10602D54FF4006400E00024400704
:102C40003FF50FAF44F480440BE74046B0E7000087
:102C5000FFFF8F000080024000900240140200201D
:102C60007FFFFFFDFFFFFEF8FFC001FFE73FDEFD36
:102C7000FBFFFFFE8FDDFEFFFFFF04000848002181
:102C8000016041608160C160016141618161C16138
:102C9000016241628162C162016341638163704785
:102CA0001402002010B500F01F010122084B8A40D9
:102CB00041F21C0403EB9011B4EB901F03D10868A0
:102CC0001043086010BD08689043086010BD000004
:102CD0000080024000F01F0201219140024A02EBF5
:102CE000901001607047000000800240064A02EB2D
:102CF0009011096800F01F0201209040014201D0AC
:102D00000120704700207047008002400A794B790B
:102D100042EA0323074A104403640A78CB7842EA64
:102D200003628B7849781B0443EA01210A43426419
:102D3000704700000080024010B540F619400AF0CC
:102D400071FB40F61A400AF06DFB40F61B400AF09A
:102D500069FBFFF74FFC00F0BFF840B14FF00042B5
:102D600000210120FFF752FE0149086010BDFEE777
:102D700044000020F8B50025274E306920F01C04DF
:102D800001200AF0DDFA2549254A0144914202D288
:102D900044F008041EE02349234A0144914202D230
:102DA00044F00C0416E02149214A0144914211D318
:102DB0002049214A0144914202D244F0040409E02E
:102DC0001E491F4A0144914202D31E4988421DD127
:102DD00044F0100434614FF40040009000226B4630
:102DE0001146022000F032F890B11748FFF70FFCAF
:102DF00000226B461146104600F028F850B1BDF88D
:102E00000000000400D401252846F8BD2846F8BD7E
:102E10002846F8BD2846F8BD0080024000D3CEFE0B
:102E2000C0E1E40040F1E9FD40787D0100796CFCEF
:102E3000005A6202001F0AFA80F0FA02802E0FF791
:102E4000804A5D05001C4E0EFFFF0400F0B5002413
:102E50000026144D2F694FF6C37C27EA0C074FF468
:102E6000F86C0CEA82124FF6FF7C02430CEAC12197
:102E70000A433A4342F00101022801D11A886A61EB
:102E80002961094A296901F00101641C09B19442D0
:102E9000F8D12969C90700D1012608B968691880E5
:102EA0003046F0BD00800240FFFF0400416821F081
:102EB00000414160704700000548016841F004018D
:102EC00001600448816941F002018161704700009E
:102ED000008002400090024010B500210020094B04
:102EE0001A6842F001021A60074C1A6802F00102E7
:102EF000491C0AB1A142F8D11968C90700D10120C3
:102F000010BD000000900240FFFF040010B508F063
:102F10004BFCFFF793FCFFF70FFF0648006840B13A
:102F20000548FFF7BFFE0448BDE810400A38FFF728
:102F3000B9BEFEE7440000201007040000B50648B3
:102F4000016841F00801016000F00AF80348816956
:102F500041F40051816100BD0080024000900240B8
:102F600010B500210020084B9A6942F480129A6142
:102F7000064C9A6902F48012491C0AB1A142F8D3A6
:102F8000002A00D1012010BD00900240FFFF040084
:102F90002DE9F84304460F46002C08D142A00090CA
:102FA0004FF4DC7347A24BA10020FDF74BFE002637
:102FB0006660277294F8240040F0010084F8240031
:102FC00065786670E36A1BB10022042120469847A9
:102FD000E36A1BB10022114620469847E36A1BB101
:102FE0000022022120469847384605F0F5F8804631
:102FF00004F1100081460AF076FD18B141464846BA
:103000000AF063FD04F1140081460AF06CFD18B16A
:10301000414648460AF059FD012D11D0042D0FD02C
:10302000032D0DD0A06A002808D01FA0009040F208
:10303000F71332A227A10020FDF704FEBDE8F883B4
:1030400094F82400C0F3800100F0FB0084F8240011
:103050000029F3D1A06A40B913A000904FF4F37394
:103060002DA21CA10020FDF7EDFD042D09D0A06AC2
:103070000771A06A05680C3528460AF0E3FD18B10F
:103080000BE0A06A0671F4E707A0009040F2EF138E
:1030900028A210A10020FDF7D5FDA6622846BDE8B4
:1030A000F8430AF0AFBD00004C69625C4C574950D0
:1030B0005C7372635C6170695C6170695F6D73679A
:1030C0002E630000636F6E6E20213D204E554C4CE8
:1030D00000000000417373657274696F6E202225D1
:1030E0007322206661696C6564206174206C696E6E
:1030F0006520256420696E2025730A00636F6E6E5B
:103100002D3E63757272656E745F6D7367203D3D11
:10311000204E554C4C000000636F6E6E2D3E637563
:103120007272656E745F6D736720213D204E554C41
:103130004C000000696E61766C6964206F705F639B
:103140006F6D706C657465645F73656D0000000081
:10315000002802DC4142112901DB052070470249A9
:10316000A1EB800000687047247A01082DE9F74F31
:1031700086B080464FF00A0AD1460A270024BB4693
:1031800000200490039002905A4904EB440001EBA4
:10319000C0060590357D0A2F01D1002D20D0002DCD
:1031A0002CD0012D0AD0022D08D253A0009040F25D
:1031B000231359A268A10020FDF744FDB8F1000FC8
:1031C00010D0D8F80000716888420BD1089818B167
:1031D000B1680898814205D1204609B0BDE8F08F5A
:1031E00027460BE0012D15D0022D07D3052D05D262
:1031F000708A0299884201D3A1460290641C24B2CD
:103200000A2CC1DB07984FF0FF3180071CD40A2F2E
:1032100013D015E03748059950F8310030B1708A65
:1032200004998842EAD3A3460490E7E7708A039999
:103230008842E3D3A2460390E0E70798C00703D093
:103240000A2F03DA3C462CE00846C6E7B9F10A0F1C
:1032500010DA4C46274804EB440150F8310090B195
:1032600025A0009040F26D1345A23BA10020FDF780
:10327000E9FC08E0BAF10A0F01DA544603E0BBF1B9
:103280000A0F35DA5C460A2C08DB1BA0009040F2DE
:103290007F1341A230A10020FDF7D4FC204600F0AE
:1032A0009BF80A2C08DB14A0009040F283133AA28A
:1032B00029A10020FDF7C6FC0E4804EB440100EBF9
:1032C000C105287D40B10CA000904FF4C27337A215
:1032D00021A10020FDF7B6FCB8F1000F02D0D8F80C
:1032E00000006860002068820898A860204674E7A3
:1032F000084672E7F4CC01204C69625C4C57495097
:103300005C7372635C636F72655C697076345C6574
:1033100074686172702E63007374617465203D3D42
:10332000204554484152505F53544154455F5045E5
:103330004E44494E47207C7C207374617465203E66
:103340003D204554484152505F53544154455F53CA
:103350005441424C45000000417373657274696FBB
:103360006E2022257322206661696C656420617479
:10337000206C696E6520256420696E2025730A0023
:103380006172705F7461626C655B695D2E71203D76
:103390003D204E554C4C000069203C204152505F6E
:1033A0005441424C455F53495A4500006172705F79
:1033B0007461626C655B695D2E7374617465203D38
:1033C0003D204554484152505F53544154455F4558
:1033D0004D5054590000000070B50C4E00EB4004F5
:1033E000002556F83400002803D008F073FE46F894
:1033F000345006EBC400057545828560456004497C
:103400000A68C2608988018270BD0000F4CC012086
:103410001A7A01082DE9F04786B007460D46002DBF
:103420000BD07C684FF48079DFF8C0802088484555
:1034300010D1207906280DD106E02DA10020FDF73E
:1034400001FC06B0BDE8F0876079042802D16088ED
:1034500008280DD0B8F82800401CA8F82800B8F8B3
:103460001E00401CA8F81E00384608F033FEE8E7AE
:10347000B8F81A00401CA8F81A00D4F80E000590FD
:10348000A0690490696819B1884203D1012602E05D
:10349000002600E000260EB1012300E0022304F123
:1034A0000802924605A9284600F098FBE0884845A6
:1034B0000BD0B0F5007F04D0B8F82C00401CA8F861
:1034C0002C00384608F006FEBBE7002EF9D005AA0E
:1034D000CDE901A20221281D05F12E0303910090E0
:1034E00019465246284600F075FAEAE700CB01205B
:1034F0006E6574696620213D204E554C4C000000DD
:10350000FEB504460E461546002C08D14AA0009090
:1035100040F21E3350A254A10020FDF793FB46B9A0
:1035200045A0009040F21F3359A24FA10020FDF7A3
:1035300089FB280008D140A000904FF4487357A29F
:1035400049A10020FDF77EFB2146286801F002FF1B
:1035500008B1564B43E02868C0F303110E2929D067
:10356000A168636800EA01020B409A4208D080B269
:10357000A0F57E41A93903D0E068D0B304F10C0571
:103580004B4B4C491A7802EB420001EBC000077D1F
:10359000022F32D38768A7422FD12F684068874215
:1035A0002BD14548C18D491CC1853146204600F0CC
:1035B00085F8FEBD01208DF8040000208DF805007F
:1035C0005E208DF80600687800F07F008DF8070017
:1035D000A8788DF80800E8788DF8090001AB4FF461
:1035E0000060009004F12E023146204600F000FCFD
:1035F000FEBDFFE76FF00300FAE7002202EB420096
:1036000001EBC000077D022F0CD38768A74209D1C8
:103610002F684068874205D11A703146204600F075
:103620004DF8E5E7521CD2B20A2AE7D332462946C2
:10363000204600F0C5F8DBE74C69625C4C57495006
:103640005C7372635C636F72655C697076345C6531
:1036500074686172702E63006E6574696620213D26
:10366000204E554C4C000000417373657274696FB5
:103670006E2022257322206661696C656420617466
:10368000206C696E6520256420696E2025730A0010
:103690007120213D204E554C4C0000006970616442
:1036A000647220213D204E554C4C0000147A0108D4
:1036B00084010020F4CC012000CB01202DE9F84347
:1036C00006460F4615461F4805EB450100EBC104B1
:1036D000207D022808D21CA0009040F2EE2322A2F6
:1036E0002DA10020FDF7AEFA164A05EB4501207D1D
:1036F00002EBC1050C35022818D1618A4FF003088E
:10370000B1F58E7F07D9211D304600F01FFA68B948
:1037100084F814800AE0B1F5877F07D32A46211D7B
:10372000304600F019FA08B984F814804FF40060AC
:1037300000902B4606F12E023946304600F058FB29
:10374000BDE8F883F4CC01204C69625C4C574950C9
:103750005C7372635C636F72655C697076345C6520
:1037600074686172702E63006172705F7461626C64
:10377000655B6172705F6964785D2E7374617465F6
:10378000203E3D204554484152505F5354415445DA
:103790005F535441424C4500417373657274696FC5
:1037A0006E2022257322206661696C656420617435
:1037B000206C696E6520256420696E2025730A00DF
:1037C0002DE9FC5F8246884616460AF12E000190DC
:1037D0004FF0FF3400275146D8F8000001F0BAFD41
:1037E000C8B9D8F80000C0F303110E2913D0B8F1FE
:1037F000000F10D078B1524601214046FFF7B6FCC9
:103800000546002D0ADA1EB14848818C491C818486
:1038100068B2BDE8FC9F6FF00F00FAE77F2D08D378
:1038200043A0009040F2C13349A24DA10020FDF712
:1038300009FA05F0FF0B54480BEB4B0900EBC905E7
:10384000297D21B9012701212975C5F808A0287D06
:1038500001280AD0022808D235A0009040F2CD33CA
:103860004AA23FA10020FDF7EDF907B96EB9414624
:10387000504600F06BF90446200005D1287D012850
:1038800002D10FB90020688296B1287D3E4F0228F0
:1038900010D3484880F800B04FF40060009005F164
:1038A0000C0331465046019A00F0A2FA04463AE071
:1038B0002046AEE7012836D10025344640F2F938DB
:1038C00013E060892189884209D1206838B118A0A5
:1038D0000090434638A222A10020FDF7B3F9207BD7
:1038E000400601D5012502E02468002CE9D13DB154
:1038F00032464FF420710E2008F0FEF9064602E031
:10390000304608F083FD46B157F8390008B108F099
:10391000E1FB47F83960002405E00449888C401C2D
:1039200088844FF0FF34204673E7000000CB01206D
:103930004C69625C4C5749505C7372635C636F7294
:10394000655C697076345C6574686172702E6300C2
:1039500074797065206F766572666C6F7700000011
:10396000417373657274696F6E202225732220661D
:1039700061696C6564206174206C696E65202564E2
:1039800020696E2025730A00F4CC01206172705FFB
:103990007461626C655B695D2E7374617465203D52
:1039A0003D2050454E44494E47206F7220535441AC
:1039B000424C4500840100206E6F207061636B658E
:1039C000742071756575657320616C6C6F776564C3
:1039D000210000002DE9FF4F81B00646DDE90EAB66
:1039E00098464FF00009002E08D133A0009040F215
:1039F0005F4339A23CA10020FDF724F94FF4207267
:103A00001C210E2007F0AAFF0546414F002D4DD086
:103A100068891C2808D228A0009040F26A433DA281
:103A200031A10020FDF70EF96C68119803F026FD16
:103A3000E08096F83400062808D01FA0009040F2DD
:103A40007143414A28A10020FDF7FCF8D8F8000096
:103A5000A060B8F80400A081DBF80000C4F81200F0
:103A6000BBF80400E082DAF80000C4F80E001098F9
:103A70000068A0614FF480702080082060800620DC
:103A800020710420607140F60600DDE902230090F9
:103A90002946304600F0ACF9388B401C3883284664
:103AA00008F018FB484605B0BDE8F08FB88C401C04
:103AB000B8844FF0FF30F6E74C69625C4C574950D0
:103AC0005C7372635C636F72655C697076345C65AD
:103AD00074686172702E63006E6574696620213DA2
:103AE000204E554C4C000000417373657274696F31
:103AF0006E2022257322206661696C6564206174E2
:103B0000206C696E6520256420696E2025730A008B
:103B100000CB0120636865636B2074686174206664
:103B20006972737420706275662063616E20686FBD
:103B30006C6420737472756374206574686172704C
:103B40005F68647200000000747D0108014A00F0A3
:103B500003B80000147A01087FB5064D031D012447
:103B6000CDE90035CDE902142A331946FFF732FFBB
:103B700004B070BD1A7A010870B50024164D04EB2C
:103B8000440005EBC002117D09B305291FD0508AFE
:103B9000401C80B25082B0F5967F03D2012905D136
:103BA000052803D32046FFF717FC10E0032904D0B3
:103BB000042905D0012906D009E00420107506E08B
:103BC0000220107503E0111D9068FFF7BFFF641C11
:103BD0000A2CD4DB70BD0000F4CC0120F8B50446FB
:103BE0000D4616461F4694F83400062808D02BA030
:103BF000009040F2A91331A239A10020FDF722F86C
:103C00009DB1286888B1214601F0A4FB68B92878E5
:103C1000C0F303100E2808D0224639462846FFF785
:103C2000A5FA002804DA40B2F8BD6FF00F00F8BD25
:103C3000354A790706D500EB400302EBC3030521A3
:103C4000197508E000EB400102EBC1010B7D052B6B
:103C500020D002230B7500EB400002EBC0018C600A
:103C60003368CB60B3880B8200234B8252F830500C
:103C700075B142F830304FF400600090334604F1E3
:103C80002E022946204600F0B3F8284608F022FA12
:103C90000020F8BD6FF00500F8BD00004C69625CC3
:103CA0004C5749505C7372635C636F72655C6970FA
:103CB00076345C6574686172702E63006E65746939
:103CC000662D3E6877616464725F6C656E203D3D71
:103CD000204554485F4857414444525F4C454E008C
:103CE000417373657274696F6E202225732220669A
:103CF00061696C6564206174206C696E652025645F
:103D000020696E2025730A00F4CC01202DE9F041D2
:103D100004460D464FF00E086089334F0E2809D82F
:103D2000388D401C3885F88B401CF883686D401C2A
:103D300068654CE0E07B18B995F83800401CE073EA
:103D4000606886890178CA0715D0012905D0062246
:103D50002649FCF7CBFA50B10DE0417859B980788B
:103D60005E2808D1607B40F01000607303E0607B48
:103D700040F008006073082E0CD0B6F5C16F17D064
:103D8000388D401C3885F88B401CF883A86D401C8A
:103D9000A8651CE095F83500000718D54146204677
:103DA00008F074FB98B92946204601F04DFD18E053
:103DB00095F8350000070AD54146204608F066FB15
:103DC00058B1788C401C7884F88B401CF8832046CE
:103DD00008F080F90020BDE8F08129462046FFF771
:103DE00019FB0020F7E7000000CB0120147A01083E
:103DF0002DE9F84306460F4615461C46089803F081
:103E00003DFB80460E21384607F044FD38B114488A
:103E10004189491C41816FF00100BDE8F883786851
:103E2000A0F80C8021680160A18881802968C0F811
:103E30000610A988418196F83400062808D009A008
:103E400000904FF499730FA21BA10020FCF7FAFE1B
:103E5000B26901B039463046BDE8F0431047000072
:103E600000CB01204C69625C4C5749505C73726313
:103E70005C6E657469665C65746865726E65742EE7
:103E8000630000006E657469662D3E687761646446
:103E9000725F6C656E206D757374206265203620CC
:103EA000666F722065746865726E65745F6F757495
:103EB0007075742100000000417373657274696F3E
:103EC0006E2022257322206661696C65642061740E
:103ED000206C696E6520256420696E2025730A00B8
:103EE00038B50446002C08D10BA000904FF49D7308
:103EF00011A215A10020FCF7A5FE472084F836008A
:103F0000442084F837001A4860611A48A0612046AE
:103F100002F010FF002038BD4C69625C4C574950DC
:103F20005C7372635C617263685C65746865726E11
:103F3000657469662E6300006E6574696620213DB4
:103F4000204E554C4C000000417373657274696FCC
:103F50006E2022257322206661696C65642061747D
:103F6000206C696E6520256420696E2025730A0027
:103F7000013500084D6E00080B4D6421686813F090
:103F800003F80128F9D1286802F032FF0446002C1A
:103F9000F3D0296820460A6990470028F3D02046CC
:103FA00008F098F8E9E700002C000020F8B50F466B
:103FB000002806D08669002E04DA002F01D1761E73
:103FC0008661F8BD304600F00FF904462000F8D0B5
:103FD00001250120052F1CD2DFE807F0030B101587
:103FE00019002089401C00B2208101281ADD00251B
:103FF00018E02089401E2081002513E0618901B16D
:10400000002560810EE00020608100250AE0A0818B
:1040100008E012A0009040F6F61317A21AA10020A3
:10402000FCF710FEA07B0028CBD0002DC9D0B4F93E
:104030000800002801DD012100E00021608908B1AD
:10404000012200E00022A08908B1012300E0002342
:1040500001B03046BDE8F04009F098BB4C69625CA5
:104060004C5749505C7372635C6170695C736F6339
:104070006B6574732E630000756E6B6E6F776E20C8
:104080006576656E74000000417373657274696FC4
:104090006E2022257322206661696C65642061743C
:1040A000206C696E6520256420696E2025730A00E6
:1040B000C000A0F1C040016841F0010101607047FB
:1040C000F0B50168CC00A4F1C04421682A4A11402F
:1040D000D0E90A23056B466A6D001A4345EA0625B6
:1040E0002A43056AC6682A43C56942EA852285696A
:1040F0002A43456942EA0532056942EA4532856844
:1041000042EA853242EAC632466832430A43416B8C
:10411000D1E9057646EA07160F69B1F80CC03F02EF
:1041200047EA0C473E438F683E434F6809683E4369
:104130000E43082B01D142F04002012D0ED06FF04A
:10414000704322600168C900A1F1C0414E6000685F
:10415000C000A0F1C040C0F80431F0BD816BD1E9CE
:10416000055343EA05130D698F892D0245EA07457A
:1041700009682B430B43E4E78100F7FF38B5044699
:104180008DF8000069460320ABBE204638BD1CB543
:104190000C466B4601AA214600F01CF8002804D00A
:1041A0006A462046019900F001F81CBD10B503468F
:1041B0000C461068002805D013B107F08BFF01E012
:1041C00005F068FF002C04D02046BDE8104006F042
:1041D000C9B810BD416819600021416003681360CF
:1041E000016001207047000010B50446204611F020
:1041F00041FD002809D1042C03D3224603A1FCF77A
:1042000021FD094909200860002010BD6765745F21
:10421000736F636B6574282564293A20696E766133
:104220006C69640A00000000400000202DE9F043A2
:10423000046A456A002301274FF00F0C07FA03F6C2
:10424000164208D09E000CFA06F824EA080401FA87
:1042500006F848EA04045B1C9BB2082BEED3082343
:1042600007FA03F818EA020F0AD0A3F10806B6000D
:104270000CFA06F825EA080501FA06F949EA0505E7
:104280005B1C9BB2102BEBD304624562BDE8F0834C
:104290002DE9F0470568C66800244FF001084FF08B
:1042A000030908FA04F71F420ED0670009FA07FC59
:1042B00025EA0C0501FA07FA4AEA050526EA0C0682
:1042C00002FA07FC4CEA0606641CA4B2102CE8D3E0
:1042D0000560C660BDE8F0872DE9F04101291AD0DC
:1042E000416899434160846800214FF001084FF014
:1042F000030C08FA01F71F4206D04D000CFA05F630
:10430000B44302FA05F63443491C89B21029F0D3AC
:104310008460BDE8F081416819434160E3E7000033
:1043200030B4054BD3F8D041641CC3F8D0410A46E1
:1043300030BC032100F0BCB900CB01202DE9FE4FB9
:1043400005468A46AB4CB4F86200401CA4F86200F3
:10435000D4F89401401CC4F89401DFF89C92D9F879
:10436000088098F800000007870E142F75D368891D
:104370000428FBD368680178A1B1082918D0032963
:104380006CD00B296BD00C296AD0042969D005297F
:1043900068D00D2967D00E2966D011296FD0122957
:1043A0006ED00DE1D4F8B401401CC4F8B4010EE1A4
:1043B000D4F8B001401CC4F8B001DFF83CB20BF1F6
:1043C000140BD9F81400C0F303110E2974D0D9F8D6
:1043D000001000F0BFFF00286ED128890828C5D33F
:1043E000284600F0B5FE68B1284607F073FE34F8A1
:1043F000680F401C2080D4F83001401CC4F8300104
:10440000BDE8FE8F07F10E010E46284607F042FA7E
:10441000002844D02889C11989B288424CD84FF469
:1044200020720E2007F09AFA0646300044D07189B7
:1044300007F10800814203D2304607F04BFE3BE013
:104440003A4641467068FBF71FFF3946304608F090
:104450001DF8B0B169A0B62307E0BDE07BE080E0C5
:1044600085E08AE08FE094E099E000906BA279A16A
:104470000020FCF7E7FB304607F02CFE1CE094E040
:1044800099E02946304607F07FFC18B1304607F026
:1044900021FE11E0284607F01DFE354619E03146A1
:1044A000284607F0F3FFA0B154A00090C72373A2E1
:1044B00068A10020FCF7C6FB284607F00BFE34F885
:1044C000740F401C2080D4F82401401CC4F824013F
:1044D00096E7D5F804803946284607F0DBF9C8BBD3
:1044E0006E68DBF80000F060D9F8100030614FF022
:1044F000000988F80090B8F802004FF6F77188427A
:1045000003D90930A8F8020002E00830A8F8020038
:10451000FF203072A6F80A903946304600F012FEAD
:10452000708134F8600F401C2080D4F86801401C72
:10453000C4F86801D4F87C01401CC4F87C01012057
:10454000CDE9010AFF2300225946CDF80090284604
:1045500001F03CFC3BE0D4F89C01401CC4F89C01F9
:104560002EE0D4F8A001401CC4F8A00128E0D4F843
:10457000A401401CC4F8A40122E0D4F8A801401C06
:10458000C4F8A8011CE0D4F8AC01401CC4F8AC018C
:1045900016E0D4F8B801401CC4F8B80110E0D4F813
:1045A000BC01401CC4F8BC010AE0D4F8C001401CA6
:1045B000C4F8C00104E0D4F8C401401CC4F8C4012C
:1045C00066346089401C60812088401C2080284619
:1045D000BDE8FE4F07F07EBD284607F07BFD34F8AE
:1045E0006A0F401C2080D4F82E01401CC4F82E0114
:1045F00006E7000000CB0120807000204C69625C5F
:104600004C5749505C7372635C636F72655C697090
:1046100076345C69636D702E6300000069636D70B1
:104620005F696E7075743A206D6F76696E6720727F
:104630002D3E7061796C6F616420746F2069636DC9
:104640007020686561646572206661696C65640AE2
:1046500000000000417373657274696F6E2022253B
:104660007322206661696C6564206174206C696ED8
:104670006520256420696E2025730A0069636D70CA
:104680005F696E7075743A20726573746F72696ECB
:1046900067206F726967696E616C20702D3E706172
:1046A000796C6F6164206661696C65640A00000062
:1046B0002DE9FF5F074689469246DFF8C080D8F8AB
:1046C000C801401CC8F8C8011C2638891C2800D223
:1046D000064606F10800044681B24FF420722220FB
:1046E00007F03CF90546280041D06889A04208D26D
:1046F00023A000904FF4B77329A234A10020FCF747
:10470000A1FAD7F804B06C6884F8009084F801A08E
:104710004FF00009A4F80490A4F80690686879683E
:1047200008303246FBF7B0FDDBF80C00039003A81D
:1047300001F0DCFE0646AEB1A4F80290698920467D
:1047400000F000FD6080B8F86000401CA8F8600030
:104750000120CDE90090FF2303AA002102962846FC
:1047600001F034FB284607F0B5FCBDE8FF9FD8F800
:10477000CC01401CC8F8CC01F7E7000000CB0120B9
:104780004C69625C4C5749505C7372635C636F7236
:10479000655C697076345C69636D702E630000003F
:1047A000636865636B2074686174206669727374F2
:1047B00020706275662063616E20686F6C6420698A
:1047C000636D70206D657373616765004173736518
:1047D0007274696F6E2022257322206661696C6590
:1047E00064206174206C696E6520256420696E20E8
:1047F00025730A0030B4054BD3F8D441641CC3F8C8
:10480000D4410A4630BC0B21FFF752BF00CB012038
:1048100010B50446607A022805D0012808D16089C5
:1048200008B1884204D9204600F054FC012060728F
:1048300010BD0000044903480860091D03480860D2
:1048400070470000E000000190010020E00000023D
:104850002DE9F84306460F469046444DB5F87A00D8
:10486000401CA5F87A007189082908D2304607F063
:1048700031FC35F8800F401C2880BDE8F88374684F
:10488000204600F05FFC38B1304607F023FC35F8D5
:104890007E0F401C2880F0E74146384600F0BAFA07
:1048A00068B12178112912D0162951D035F8840F1A
:1048B000401C28803046BDE8F84307F00BBC30466A
:1048C00007F008FC35F87C0F401C2880D5E7284A03
:1048D000D8F800101268914203D1231D15D06368E7
:1048E0009BB1231D2FD063686BB3914204D1009319
:1048F0006946384600F08EFA00B335F8881F491C27
:1049000029806178FFF784FFD4E7607838B135F803
:104910008A0F401C28807D6A6DB12D680BE035F848
:10492000860F401C28800A206070F4E761782846D2
:10493000FFF76EFF2D68002DF8D1BBE735F87C0F2F
:10494000401C2880B6E735F8840F401C2880B1E76A
:1049500035F88C1F491C2980417A0129AAD10021F0
:104960004181022242720172A4E7000000CB0120C3
:1049700090010020F0B587B040F29444ADF81840A3
:104980000025ADF81A50084E3488641C3480022784
:10499000CDE90057042406AECDE903640293012358
:1049A00001F023FA07B0F0BD78CB012070B50546C1
:1049B0000E466FF0050420463168C1F303120E2A3B
:1049C00005D013A10020FCF73DF9204670BD1E4A1A
:1049D0001268914205D11DA10020FCF733F9204651
:1049E00070BD27490C6810E094F8351089060BD586
:1049F00025B12A6812B16168914205D1314620463D
:104A000000F040F80028EBD12468002CECD170BDF8
:104A100069676D705F6A6F696E67726F75703A2053
:104A2000617474656D707420746F206A6F696E2094
:104A30006E6F6E2D6D756C74696361737420616443
:104A400064726573730000009001002069676D70E7
:104A50005F6A6F696E67726F75703A206174746512
:104A60006D707420746F206A6F696E20616C6C7356
:104A7000797374656D73206164647265737300008B
:104A80001C01002070B505460E466FF00504306825
:104A9000C0F303110E2905D020A10020FCF7D2F8A5
:104AA000204670BD2C490968884205D12BA1002001
:104AB000FCF7C8F8204670BD95F83500800605D48F
:104AC00035A10020FCF7BEF8204670BD31462846CF
:104AD00000F0AAF90446ECB1607AB0B9207B28B99D
:104AE0002B6F1BB101223146284698473848018870
:104AF000491C018016222146284600F039FA05217A
:104B0000204600F0E7FA01206072207B401C2073F1
:104B1000002070BD4FF0FF3070BD000069676D7000
:104B20005F6A6F696E67726F75705F6E65746966D4
:104B30003A20617474656D707420746F206A6F69B7
:104B40006E206E6F6E2D6D756C7469636173742069
:104B500061646472657373009001002069676D7011
:104B60005F6A6F696E67726F75705F6E6574696694
:104B70003A20617474656D707420746F206A6F6977
:104B80006E20616C6C73797374656D7320616464FD
:104B9000726573730000000069676D705F6A6F690A
:104BA0006E67726F75705F6E657469663A206174C6
:104BB00074656D707420746F206A6F696E206F6EFB
:104BC000206E6F6E2D49474D50206E6574696600EA
:104BD0008ECB01202DE9F04106460F466FF005050A
:104BE0003868C0F303110E2906D014A10020FCF789
:104BF00029F82846BDE8F0811E490968884205D198
:104C00001DA10020FCF71EF82846F3E72848046899
:104C100010E094F8350080060BD526B1306810B14D
:104C20006168814205D13946204600F043F805B15C
:104C300005462468002CECD12846DBE769676D70D7
:104C40005F6C6561766567726F75703A2061747428
:104C5000656D707420746F206C65617665206E6F71
:104C60006E2D6D756C746963617374206164647218
:104C7000657373009001002069676D705F6C6561FA
:104C8000766567726F75703A20617474656D7074C3
:104C900020746F206C6561766520616C6C7379732C
:104CA00074656D7320616464726573730000000045
:104CB0001C0100202DE9F04105460E466FF0050766
:104CC0003068C0F303110E2906D022A10020FBF7A3
:104CD000B9FF3846BDE8F0812E490968884205D100
:104CE0002DA10020FBF7AEFF3846F3E795F835001D
:104CF000800605D437A10020FBF7A4FF3846E9E77A
:104D00003146284600F086F8044604B3207B01288B
:104D100019D82146284600F00BF9207A40B13C48CA
:104D20000188491C018017222146284600F020F9FD
:104D30002B6F1BB1002231462846984721460A2096
:104D400005F038F901E0401E20730020C2E7384624
:104D5000C0E7000069676D705F6C656176656772BA
:104D60006F75705F6E657469663A20617474656D05
:104D7000707420746F206C65617665206E6F6E2D87
:104D80006D756C74696361737420616464726573BA
:104D9000730000009001002069676D705F6C6561B1
:104DA000766567726F75705F6E657469663A2061CB
:104DB0007474656D707420746F206C656176652005
:104DC000616C6C73797374656D7320616464726572
:104DD0007373000069676D705F6C656176656772FB
:104DE0006F75705F6E657469663A20617474656D85
:104DF000707420746F206C65617665206F6E206E14
:104E00006F6E2D49474D50206E6574696600000035
:104E100090CB0120406A04E042680B689A4202D0BD
:104E200000680028F8D170472DE9F84380460D4608
:104E3000D8F8246029464046FFF7ECFF00281FD130
:104E40000A2005F005F90446CCB1DDB128686060A0
:104E5000002767816772277227731448A6B12968F3
:104E60000068814208D112A000904FF48973184A5B
:104E700018A10020FBF7E6FE306820603460204671
:104E8000BDE8F8830020E2E729680068814208D085
:104E900007A000904FF4867318A20EA10020FBF724
:104EA000D1FE2760C8F82440E9E700009001002007
:104EB0004C69625C4C5749505C7372635C636F72FF
:104EC000655C697076345C69676D702E6300000004
:104ED000F47E0108417373657274696F6E20222538
:104EE0007322206661696C6564206174206C696E50
:104EF0006520256420696E2025730A0069676D703E
:104F00005F6C6F6F6B75705F67726F75703A20665C
:104F1000697273742067726F7570206D7573742079
:104F2000626520616C6C73797374656D7300000049
:104F300002460020526A06E013688B4202D10968DB
:104F4000116002E01A46002AF6D1002A01D16FF062
:104F50000F00704710B5446A002C06D0246804E0A6
:104F600005212046FFF754FC2468002CF8D110BD21
:104F70002DE9FC4781460E461546254800680190FC
:104F80004FF000084FF420720821362006F0E6FCAE
:104F90000746002F37D07C687889082808D21DA0E2
:104FA000009040F2023323A231A10020FBF74AFE19
:104FB000D9F804000190162D02D0172D07D00AE071
:104FC00006F10408706860600120307203E0DFF8C9
:104FD000C88070686060162D01D0172D0ED1257025
:104FE0000020607060800821204600F0ABF86080EF
:104FF0004B46424601A93846FFF7BCFC384607F04D
:1050000069F8BDE8FC8725490888401C0880F8E756
:10501000107A01084C69625C4C5749505C737263AA
:105020005C636F72655C697076345C69676D702E65
:105030006300000069676D705F73656E643A20639A
:105040006865636B2074686174206669727374208C
:10505000706275662063616E20686F6C6420737483
:10506000727563742069676D705F6D73670000000F
:10507000417373657274696F6E20222573222066F6
:1050800061696C6564206174206C696E65202564BB
:1050900020696E2025730A009401002082CB012034
:1050A00010B504460A492046FFF7BEFE60B1022152
:1050B0004172017B491C0173236F1BB1012204491A
:1050C00020469847002010BD4FF0FF3010BD000073
:1050D0009001002049084181002901D1012141812D
:1050E000704700004A7A012A0DD1074B4A681B68B5
:1050F0009A4208D002224A72044A13885B1C138029
:105100001622FFF735BF70479001002092CB012097
:1051100070B50B4805680FE06C6A0AE0608938B129
:10512000401E80B2608118B921462846FFF7DAFF99
:105130002468002CF2D12D68002DEDD170BD000047
:105140001C01002000B504F099FBC04380B200BDF3
:1051500070B505460026002412E06989686804F0ED
:105160008DFB204481B201EB1044A87AC00706D021
:105170008EB10026E0B2C4F3072141EA00242D6875
:10518000002DEAD126B1E0B2C4F3072141EA0024A0
:10519000E04380B270BD0126ECE730B4029D1B688D
:1051A0009CB204EB13442B689DB22C4404EB1343D4
:1051B0009CB204EB13439CB204EB134330BC00F0ED
:1051C00016B8F8B5DDE906462468A5B205EB144526
:1051D0003468A6B2354405EB1444A5B205EB14447B
:1051E000A5B205EB1444009400F038F8F8BD2DE9A1
:1051F000F04105460F4690461C46002612E069899C
:10520000686804F03BFB204481B201EB1044A87AAB
:10521000C00706D0FEB10026E0B2C4F3072141EA80
:1052200000242D68002DEAD126B1E0B2C4F3072195
:1052300041EA0024384602F021F90444404602F0D5
:105240001DF9204481B201EB104000EB1040C04337
:1052500080B2BDE8F0810126DEE700002DE9F84FBD
:1052600005460A9C894692461E464FF0000828E0F3
:105270006F89B74200D937463946686804F0FEFAAC
:105280000444F01B86B247F6FF70864208D31CA088
:1052900000904FF4D07322A224A10020FBF7D2FC8F
:1052A000A0B200EB1444A87AC00709D0B8F1000FEF
:1052B00023D04FF00008E0B2C4F3072141EA0024F4
:1052C0002D680DB1002ED3D1B8F1000F04D0E0B29B
:1052D000C4F3072141EA0024484602F0CFF8044411
:1052E000504602F0CBF8204481B201EB104000EBB5
:1052F0001040C04380B2BDE8F88F4FF00108DAE7F4
:105300004C69625C4C5749505C7372635C636F72AA
:10531000655C696E65745F63686B73756D2E6300A1
:1053200064656C657465206D65000000417373658C
:105330007274696F6E2022257322206661696C6524
:1053400064206174206C696E6520256420696E207C
:1053500025730A0008B50090421C07D0020005D052
:1053600091F83520920703D4002008BD012008BD24
:105370004A68824201D1002008BD896800EA010321
:105380000A40934202D10143491C01D0002008BDCC
:10539000012008BD2DE9FE43446838A10020FBF739
:1053A00051FC39A10020FBF74DFC608802F066F843
:1053B0006178CDE9001020783CA100F00F030209CC
:1053C0000020FBF73FFC30A10020FBF73BFCE0880E
:1053D00002F054F8C0F30C06E08802F04FF8C0F376
:1053E0004037E08802F04AF8C0F38035E08802F0E8
:1053F00045F84FEAD038A08802F040F8CDE90176B0
:105400000246434638A100200095FBF71BFC1EA175
:105410000020FBF717FC608902F030F80090637AF7
:10542000227A40A10020FBF70DFC17A10020FBF71A
:1054300009FCE068010EC0F30742CDE90021C0F38A
:105440000723C2B246A10020FBF7FCFB0EA10020FF
:10545000FBF7F8FB2069010EC0F30742CDE90021FC
:10546000C0F30723C2B24AA10020FBF7EBFB03B055
:1054700005A1BDE8F0430020FBF7E4BB49502068DC
:1054800065616465723A0A002B2D2D2D2D2D2D2D71
:105490002D2D2D2D2D2D2D2D2D2D2D2D2D2D2D2D3C
:1054A0002D2D2D2D2D2D2D2D2B0A00007C25326428
:1054B000207C253264207C202030782530326878AA
:1054C000207C2020202020253568752020202020C9
:1054D0007C2028762C20686C2C20746F732C206C18
:1054E000656E290A000000007C20202020253568F8
:1054F000752020202020207C25687525687525686A
:10550000757C20202020253468752020207C2028D0
:1055100069642C20666C6167732C206F6666736506
:1055200074290A007C20202533687520207C2020E7
:105530002533687520207C202020203078253034C9
:10554000687820202020207C202874746C2C207007
:10555000726F746F2C2063686B73756D290A00007D
:105560007C20202533687520207C20202533687519
:1055700020207C20202533687520207C20202533A6
:10558000687520207C2028737263290A00000000BF
:105590007C20202533687520207C202025336875E9
:1055A00020207C20202533687520207C2020253376
:1055B000687520207C202864657374290A00000027
:1055C0002DE9F74F88B0044600270998808D1438DC
:1055D000C11700EB5170C0F3CF000590142560682F
:1055E00006900698BE1F017801F00F01052903D02F
:1055F00030460BB0BDE8F08F6189142905D26AA14D
:105600000020FBF71FFB3046F3E7C08801F036FFB0
:10561000C0F30C01039100F400500290208914386B
:105620001FFA80F8B3E005984FF6FF7101EAC00059
:10563000404500D9404604904FF4207214210E20BA
:1056400006F08CF982465FEA0A0064D0BAF80A00D4
:10565000142808D25BA000904FF4497362A26AA19B
:105660000020FBF7EFFA1422DAF804000699FAF7A3
:105670000BFEDAF804B0049E35E06089411B8FB25E
:10568000A84208D24FA0009040F22D3368A25EA13C
:105690000020FBF7D7FABE4200D2374677B300F0BE
:1056A000E0FF81465FEA09002BD060684B46284442
:1056B000CDE9000741223946002006F069FA07903B
:1056C000079810B3204606F0A1FEC9F814405C48C4
:1056D000C9F810005046079906F072FAF01B86B21E
:1056E0000EB100252468002EC7D1E81985B20998AB
:1056F000808D1438404517DB012116E00025246811
:10570000F1E7504606F0E6FC05E0484600F0ACFF45
:10571000504606F0DFFC4B48D0F84C11491CC0F84D
:105720004C114FF0FF3064E700210398C0F30C00E8
:1057300009B1029909B140F4005001F09FFEABF8A5
:1057400006000498143080B201F098FEABF8020015
:105750000020ABF80A0014215846FFF7F3FCABF821
:105760000A00099851460A9A436998473548018EBC
:10577000491C0186504606F0ADFC0498A8EB0000D9
:105780001FFA80F805990398084480B20390B8F195
:10579000000F7FF448AF2B48D0F84811491CC0F8DF
:1057A0004811002025E700006970345F6672616768
:1057B00028293A207062756620746F6F2073686FB5
:1057C000727400004C69625C4C5749505C737263A0
:1057D0005C636F72655C697076345C6970345F66B7
:1057E0007261672E6300000074686973206E6565DE
:1057F00064732061207062756620696E206F6E652B
:105800002070696563652100417373657274696F07
:105810006E2022257322206661696C6564206174A4
:10582000206C696E6520256420696E2025730A004E
:10583000702D3E6C656E203E3D20706F66660000E8
:10584000B16C000800CB01202DE9F04F85B0064671
:105850000F464FF0010BDFF88493B9F84A00401C63
:10586000A9F84A00D9F85C01401CC9F85C017568C8
:1058700004212878B1EB101F1DD00209D8A1002007
:10588000FBF7E0F93046FFF785FD304606F022FCD5
:10589000B9F85C00401CA9F85C00B9F84E00401C47
:1058A000A9F84E00D9F82001401CC9F820010020B9
:1058B00005B0BDE8F08F00074FEA9068688801F0F6
:1058C000DDFD04463189A14203D92146304606F068
:1058D00009FD7089404505D33089A04202D3B8F153
:1058E000140F2BD2B8F1140F04D24246C94900203C
:1058F000FBF7A8F97389434504D24246C649002004
:10590000FBF7A0F93389A34204D22246C3A10020A9
:10591000FBF798F9304606F0DDFBB9F85200401C61
:10592000A9F85200B9F84E00401CA9F84E00D9F869
:105930002C01401CC9F82C010020B9E7414628463B
:10594000FFF700FCF8B141462846FFF7FBFB024693
:10595000C2A10020FBF776F93046FFF71BFD304669
:1059600006F0B8FBB9F85000401CA9F85000B9F88F
:105970004E00401CA9F84E00D9F82001401CC9F87F
:105980002001002094E7DFF804A32869CAF8140076
:10599000E968CAF81010C0F303110AF1140004906A
:1059A0000E2905D0384600F0CBF9C8B13C4628E0B6
:1059B00097F83500800611D538460499FFF72AFA82
:1059C00060B1B3480390DAF81410814204D1DAF8D8
:1059D000100008B94FF0000B3C4612E0002410E024
:1059E00000249AF814007F280BD0AA48046806E027
:1059F000BC4203D0204600F0A3F910B92468002C63
:105A0000F6D1BBF1000F0CD03946DAF81000FFF7E1
:105A1000A1FC002856D19AF81000C0F303100E28FC
:105A200050D0002C66D0E88830F0C0011ED001F0C4
:105A300025FDC0044FEA104B688801F01FFD03905C
:105A4000A88801F01BFD0246A879C0F34011039815
:105A50008DE80308338990490020FBF7F3F83046BE
:105A600000F0ECFB0646002E5DD075688BA100208F
:105A7000FBF7E8F83046FFF78DFC338972898BA17C
:105A80000020FBF7DFF8CAF80040CAF80470CAF833
:105A9000085028780007800EAAF80C0041463046CE
:105AA00006F0F4FC687A012853D002285BD006285F
:105AB00045D0112839D02146DAF81400FFF74AFC06
:105AC00080B365E083A10020FBF7BCF8304606F008
:105AD00001FBB9F84E00401CA9F84E00D9F824018A
